{
  "contractName": "basicCrowdsale",
  "abi": [
    {
      "constant": true,
      "inputs": [],
      "name": "_stage",
      "outputs": [
        {
          "name": "",
          "type": "uint8"
        }
      ],
      "payable": false,
      "stateMutability": "view",
      "type": "function"
    },
    {
      "constant": true,
      "inputs": [],
      "name": "_endTime",
      "outputs": [
        {
          "name": "",
          "type": "uint256"
        }
      ],
      "payable": false,
      "stateMutability": "view",
      "type": "function"
    },
    {
      "constant": false,
      "inputs": [],
      "name": "finalize",
      "outputs": [
        {
          "name": "",
          "type": "bool"
        }
      ],
      "payable": false,
      "stateMutability": "nonpayable",
      "type": "function"
    },
    {
      "constant": true,
      "inputs": [],
      "name": "_wallet",
      "outputs": [
        {
          "name": "",
          "type": "address"
        }
      ],
      "payable": false,
      "stateMutability": "view",
      "type": "function"
    },
    {
      "constant": true,
      "inputs": [],
      "name": "getRate",
      "outputs": [
        {
          "name": "",
          "type": "uint256"
        }
      ],
      "payable": false,
      "stateMutability": "view",
      "type": "function"
    },
    {
      "constant": true,
      "inputs": [],
      "name": "isFinalized",
      "outputs": [
        {
          "name": "",
          "type": "bool"
        }
      ],
      "payable": false,
      "stateMutability": "view",
      "type": "function"
    },
    {
      "constant": true,
      "inputs": [],
      "name": "_weiRaised",
      "outputs": [
        {
          "name": "",
          "type": "uint256"
        }
      ],
      "payable": false,
      "stateMutability": "view",
      "type": "function"
    },
    {
      "constant": false,
      "inputs": [
        {
          "name": "reciever",
          "type": "address"
        }
      ],
      "name": "buyTokens",
      "outputs": [
        {
          "name": "",
          "type": "bool"
        }
      ],
      "payable": true,
      "stateMutability": "payable",
      "type": "function"
    },
    {
      "constant": true,
      "inputs": [],
      "name": "_token",
      "outputs": [
        {
          "name": "",
          "type": "address"
        }
      ],
      "payable": false,
      "stateMutability": "view",
      "type": "function"
    },
    {
      "constant": true,
      "inputs": [],
      "name": "_startTime",
      "outputs": [
        {
          "name": "",
          "type": "uint256"
        }
      ],
      "payable": false,
      "stateMutability": "view",
      "type": "function"
    },
    {
      "inputs": [
        {
          "name": "startTime",
          "type": "uint256"
        },
        {
          "name": "endTime",
          "type": "uint256"
        },
        {
          "name": "wallet",
          "type": "address"
        },
        {
          "name": "symbol",
          "type": "string"
        },
        {
          "name": "name",
          "type": "string"
        },
        {
          "name": "decimals",
          "type": "uint8"
        },
        {
          "name": "totalSupply",
          "type": "uint256"
        }
      ],
      "payable": false,
      "stateMutability": "nonpayable",
      "type": "constructor"
    },
    {
      "payable": true,
      "stateMutability": "payable",
      "type": "fallback"
    },
    {
      "anonymous": false,
      "inputs": [
        {
          "indexed": true,
          "name": "purchaser",
          "type": "address"
        },
        {
          "indexed": true,
          "name": "beneficiary",
          "type": "address"
        },
        {
          "indexed": false,
          "name": "value",
          "type": "uint256"
        },
        {
          "indexed": false,
          "name": "amount",
          "type": "uint256"
        }
      ],
      "name": "TokenPurchase",
      "type": "event"
    }
  ],
  "bytecode": "0x60606040526000600560006101000a81548160ff021916908315150217905550341561002a57600080fd5b6040516117a03803806117a083398101604052808051906020019091908051906020019091908051906020019091908051820191906020018051820191906020018051906020019091908051906020019091905050868686426001541015151561009357600080fd5b600154600254101515156100a657600080fd5b6000600360019054906101000a900473ffffffffffffffffffffffffffffffffffffffff1673ffffffffffffffffffffffffffffffffffffffff16141515156100ee57600080fd5b60015492506002549150600360019054906101000a900473ffffffffffffffffffffffffffffffffffffffff1690505050508383838361012c61027c565b8080602001806020018560ff1660ff168152602001848152602001838103835287818151815260200191508051906020019080838360005b8381101561017f578082015181840152602081019050610164565b50505050905090810190601f1680156101ac5780820380516001836020036101000a031916815260200191505b50838103825286818151815260200191508051906020019080838360005b838110156101e55780820151818401526020810190506101ca565b50505050905090810190601f1680156102125780820380516001836020036101000a031916815260200191505b509650505050505050604051809103906000f080151561023157600080fd5b6000806101000a81548173ffffffffffffffffffffffffffffffffffffffff021916908373ffffffffffffffffffffffffffffffffffffffff1602179055505050505050505061028c565b604051610bed80610bb383390190565b6109188061029b6000396000f3006060604052600436106100a4576000357c0100000000000000000000000000000000000000000000000000000000900463ffffffff16806316396b63146100a957806340d48958146100d85780634bb278f314610101578063610757e41461012e578063679aefce146101835780638d4e4083146101ac57806394a5aa8d146101d9578063ec8ac4d814610202578063ecd0c0c314610248578063fa1acb5c1461029d575b600080fd5b34156100b457600080fd5b6100bc6102c6565b604051808260ff1660ff16815260200191505060405180910390f35b34156100e357600080fd5b6100eb6102d9565b6040518082815260200191505060405180910390f35b341561010c57600080fd5b6101146102df565b604051808215151515815260200191505060405180910390f35b341561013957600080fd5b610141610598565b604051808273ffffffffffffffffffffffffffffffffffffffff1673ffffffffffffffffffffffffffffffffffffffff16815260200191505060405180910390f35b341561018e57600080fd5b6101966105be565b6040518082815260200191505060405180910390f35b34156101b757600080fd5b6101bf610611565b604051808215151515815260200191505060405180910390f35b34156101e457600080fd5b6101ec610624565b6040518082815260200191505060405180910390f35b61022e600480803573ffffffffffffffffffffffffffffffffffffffff1690602001909190505061062a565b604051808215151515815260200191505060405180910390f35b341561025357600080fd5b61025b610800565b604051808273ffffffffffffffffffffffffffffffffffffffff1673ffffffffffffffffffffffffffffffffffffffff16815260200191505060405180910390f35b34156102a857600080fd5b6102b0610825565b6040518082815260200191505060405180910390f35b600360009054906101000a900460ff1681565b60025481565b60008060008060009054906101000a900473ffffffffffffffffffffffffffffffffffffffff1673ffffffffffffffffffffffffffffffffffffffff1663893d20e86000604051602001526040518163ffffffff167c0100000000000000000000000000000000000000000000000000000000028152600401602060405180830381600087803b151561037157600080fd5b6102c65a03f1151561038257600080fd5b5050506040518051905091508173ffffffffffffffffffffffffffffffffffffffff163373ffffffffffffffffffffffffffffffffffffffff161415156103c857600080fd5b600560009054906101000a900460ff161515156103e457600080fd5b600254421115156103f457600080fd5b6000809054906101000a900473ffffffffffffffffffffffffffffffffffffffff1673ffffffffffffffffffffffffffffffffffffffff166370a08231836000604051602001526040518263ffffffff167c0100000000000000000000000000000000000000000000000000000000028152600401808273ffffffffffffffffffffffffffffffffffffffff1673ffffffffffffffffffffffffffffffffffffffff168152602001915050602060405180830381600087803b15156104b857600080fd5b6102c65a03f115156104c957600080fd5b5050506040518051905090506000811115610593576000809054906101000a900473ffffffffffffffffffffffffffffffffffffffff1673ffffffffffffffffffffffffffffffffffffffff166342966c68826000604051602001526040518263ffffffff167c010000000000000000000000000000000000000000000000000000000002815260040180828152602001915050602060405180830381600087803b151561057657600080fd5b6102c65a03f1151561058757600080fd5b50505060405180519050505b505090565b600360019054906101000a900473ffffffffffffffffffffffffffffffffffffffff1681565b60006105c861082b565b15156105d357600080fd5b42600154111580156105fb57506105f76101f460025461088290919063ffffffff16565b4211155b1561060957600a905061060e565b600590505b90565b600560009054906101000a900460ff1681565b60045481565b60008060008060008573ffffffffffffffffffffffffffffffffffffffff161415151561065657600080fd5b61065e6105be565b92506000831415151561067057600080fd5b349150610686838361089b90919063ffffffff16565b905061069d826004546108ce90919063ffffffff16565b6004819055506000809054906101000a900473ffffffffffffffffffffffffffffffffffffffff1673ffffffffffffffffffffffffffffffffffffffff1663a9059cbb86836000604051602001526040518363ffffffff167c0100000000000000000000000000000000000000000000000000000000028152600401808373ffffffffffffffffffffffffffffffffffffffff1673ffffffffffffffffffffffffffffffffffffffff16815260200182815260200192505050602060405180830381600087803b151561076f57600080fd5b6102c65a03f1151561078057600080fd5b50505060405180519050508473ffffffffffffffffffffffffffffffffffffffff163373ffffffffffffffffffffffffffffffffffffffff167f623b3804fa71d67900d064613da8f94b9617215ee90799290593e1745087ad188484604051808381526020018281526020019250505060405180910390a3505050919050565b6000809054906101000a900473ffffffffffffffffffffffffffffffffffffffff1681565b60015481565b6000426001541115151561083e57600080fd5b426002541015151561084f57600080fd5b600560009054906101000a900460ff1615151561086b57600080fd5b6000341415151561087b57600080fd5b6001905090565b600082821115151561089057fe5b818303905092915050565b600080828402905060008414806108bc57508284828115156108b957fe5b04145b15156108c457fe5b8091505092915050565b60008082840190508381101515156108e257fe5b80915050929150505600a165627a7a72305820e40c1173898d64616838804d768cdb9e0c706e6c7d2f5710034586239a75cc6e00296060604052341561000f57600080fd5b604051610bed380380610bed83398101604052808051820191906020018051820191906020018051906020019091908051906020019091905050836000908051906020019061005f929190610149565b508260019080519060200190610076929190610149565b5081600260006101000a81548160ff021916908360ff16021790555033600460006101000a81548173ffffffffffffffffffffffffffffffffffffffff021916908373ffffffffffffffffffffffffffffffffffffffff1602179055508060056000600460009054906101000a900473ffffffffffffffffffffffffffffffffffffffff1673ffffffffffffffffffffffffffffffffffffffff1673ffffffffffffffffffffffffffffffffffffffff1681526020019081526020016000208190555080600381905550505050506101ee565b828054600181600116156101000203166002900490600052602060002090601f016020900481019282601f1061018a57805160ff19168380011785556101b8565b828001600101855582156101b8579182015b828111156101b757825182559160200191906001019061019c565b5b5090506101c591906101c9565b5090565b6101eb91905b808211156101e75760008160009055506001016101cf565b5090565b90565b6109f0806101fd6000396000f300606060405260043610610078576000357c0100000000000000000000000000000000000000000000000000000000900463ffffffff16806318160ddd1461007d57806342966c68146100a657806370a08231146100e1578063893d20e81461012e578063a9059cbb14610183578063be45fd62146101dd575b600080fd5b341561008857600080fd5b61009061027a565b6040518082815260200191505060405180910390f35b34156100b157600080fd5b6100c760048080359060200190919050506102bd565b604051808215151515815260200191505060405180910390f35b34156100ec57600080fd5b610118600480803573ffffffffffffffffffffffffffffffffffffffff16906020019091905050610422565b6040518082815260200191505060405180910390f35b341561013957600080fd5b610141610515565b604051808273ffffffffffffffffffffffffffffffffffffffff1673ffffffffffffffffffffffffffffffffffffffff16815260200191505060405180910390f35b341561018e57600080fd5b6101c3600480803573ffffffffffffffffffffffffffffffffffffffff169060200190919080359060200190919050506105a4565b604051808215151515815260200191505060405180910390f35b34156101e857600080fd5b610260600480803573ffffffffffffffffffffffffffffffffffffffff1690602001909190803590602001909190803590602001908201803590602001908080601f016020809104026020016040519081016040528093929190818152602001838380828437820191505050505050919050506105d9565b604051808215151515815260200191505060405180910390f35b60007f91cf34a58a9ed220d9b072639106d1d07251e1791426d2560ab2d6c4ca19a1836003546040518082815260200191505060405180910390a1600354905090565b600080821115156102cd57600080fd5b81600560003373ffffffffffffffffffffffffffffffffffffffff1673ffffffffffffffffffffffffffffffffffffffff168152602001908152602001600020541015151561031b57600080fd5b61036d82600560003373ffffffffffffffffffffffffffffffffffffffff1673ffffffffffffffffffffffffffffffffffffffff1681526020019081526020016000205461096690919063ffffffff16565b600560003373ffffffffffffffffffffffffffffffffffffffff1673ffffffffffffffffffffffffffffffffffffffff168152602001908152602001600020819055506103c58260035461096690919063ffffffff16565b6003819055503373ffffffffffffffffffffffffffffffffffffffff167fcc16f5dbb4873280815c1ee09dbd06736cffcc184412cf7a71a0fdb75d397ca5836040518082815260200191505060405180910390a260019050919050565b60007f53fa2f1ab3ce356105837b2d33e4d9445d41050bf57eca18817186e0242a08a982600560008573ffffffffffffffffffffffffffffffffffffffff1673ffffffffffffffffffffffffffffffffffffffff16815260200190815260200160002054604051808373ffffffffffffffffffffffffffffffffffffffff1673ffffffffffffffffffffffffffffffffffffffff1681526020018281526020019250505060405180910390a1600560008373ffffffffffffffffffffffffffffffffffffffff1673ffffffffffffffffffffffffffffffffffffffff168152602001908152602001600020549050919050565b6000600460009054906101000a900473ffffffffffffffffffffffffffffffffffffffff1673ffffffffffffffffffffffffffffffffffffffff167fe3dc01f26841462f7605d43d79c5b39ef562d9d9726f2a390f728966016ae64560405160405180910390a2600460009054906101000a900473ffffffffffffffffffffffffffffffffffffffff16905090565b60006105ae6109b0565b60006105bb8585846105d9565b905080156105cc57600192506105d1565b600092505b505092915050565b600080836105e633610422565b1115156105f257600080fd5b60008573ffffffffffffffffffffffffffffffffffffffff161415151561061857600080fd5b61066a84600560003373ffffffffffffffffffffffffffffffffffffffff1673ffffffffffffffffffffffffffffffffffffffff1681526020019081526020016000205461096690919063ffffffff16565b600560003373ffffffffffffffffffffffffffffffffffffffff1673ffffffffffffffffffffffffffffffffffffffff168152602001908152602001600020819055506106ff84600560008873ffffffffffffffffffffffffffffffffffffffff1673ffffffffffffffffffffffffffffffffffffffff1681526020019081526020016000205461097f90919063ffffffff16565b600560008773ffffffffffffffffffffffffffffffffffffffff1673ffffffffffffffffffffffffffffffffffffffff1681526020019081526020016000208190555061074b8561099d565b15610888578490508073ffffffffffffffffffffffffffffffffffffffff1663c0ee0b8a3386866000604051602001526040518463ffffffff167c0100000000000000000000000000000000000000000000000000000000028152600401808473ffffffffffffffffffffffffffffffffffffffff1673ffffffffffffffffffffffffffffffffffffffff16815260200183815260200180602001828103825283818151815260200191508051906020019080838360005b8381101561081e578082015181840152602081019050610803565b50505050905090810190601f16801561084b5780820380516001836020036101000a031916815260200191505b50945050505050602060405180830381600087803b151561086b57600080fd5b6102c65a03f1151561087c57600080fd5b50505060405180519050505b8473ffffffffffffffffffffffffffffffffffffffff163373ffffffffffffffffffffffffffffffffffffffff167fe19260aff97b920c7df27010903aeb9c8d2be5d310a2c67824cf3f15396e4c1686866040518083815260200180602001828103825283818151815260200191508051906020019080838360005b8381101561091f578082015181840152602081019050610904565b50505050905090810190601f16801561094c5780820380516001836020036101000a031916815260200191505b50935050505060405180910390a360019150509392505050565b600082821115151561097457fe5b818303905092915050565b600080828401905083811015151561099357fe5b8091505092915050565b600080823b905060008111915050919050565b6020604051908101604052806000815250905600a165627a7a72305820b8a4ae86703d2640e40d87d6b784a0d511f49b9a88404d4d2fb8635bd0abf2ea0029",
  "source": "pragma solidity ^0.4.17;\r\nimport \"../abstract-classes/erc223-crowdsale.sol\";\r\nimport \"../tokens/basic-token.sol\";\r\n\r\nimport \"../abstract-classes/erc223-reciever.sol\";\r\n\r\ncontract basicCrowdsale is CrowdSale {\r\n\r\n\r\n  function basicCrowdsale(  uint256 startTime, uint256 endTime, address wallet\r\n                            ,string symbol, string name, uint8 decimals\r\n                            ,uint256 totalSupply) public CrowdSale(startTime,endTime,wallet)\r\n  {\r\n    _token = new basicToken(symbol, name, decimals, totalSupply);\r\n  }\r\n\r\n\r\n\r\n\r\n\r\n\r\n  function getRate() public view returns (uint256)\r\n  {\r\n    require(validPurchase());\r\n\r\n    if(_startTime <= now && now <=_endTime.sub(500) )\r\n    {\r\n      return 10;\r\n    }\r\n    else\r\n    {\r\n      return 5 ;\r\n    }\r\n\r\n  }\r\n\r\n  function buyTokens(address reciever) public payable returns (bool)\r\n  {\r\n    //TODO : add whitelist checks\r\n    require(reciever != 0x0);\r\n    uint256 rate ;\r\n    rate = getRate();\r\n    require(rate!=0);\r\n    uint256 weiAmount = msg.value;\r\n    uint256 amount = weiAmount.mul(rate);\r\n    _weiRaised = _weiRaised.add(weiAmount);\r\n    _token.transfer(reciever,amount);\r\n    TokenPurchase(msg.sender, reciever, weiAmount, amount);\r\n  }\r\n\r\n  function finalize() public returns (bool)\r\n  {\r\n    address owner = _token.getOwner();\r\n    require (msg.sender == owner  );\r\n    require(!isFinalized);\r\n    require(now > _endTime );\r\n    uint256 remaining = _token.balanceOf (owner);\r\n    if (remaining > 0 )\r\n    {\r\n      _token.burn(remaining);\r\n    }\r\n\r\n  }\r\n\r\n\r\n}\r\n",
  "sourcePath": "C:\\ethereum\\crowdsale-factory\\contracts\\crowdsale\\basic-crowdsale.sol",
  "compiler": {
    "name": "solc",
    "version": "0.4.18+commit.9cf6e910.Emscripten.clang"
  },
  "schemaVersion": "1.0.1",
  "updatedAt": "2017-11-14T21:07:19.490Z"
}