{
  "contractName": "basicToken",
  "abi": [
    {
      "constant": true,
      "inputs": [],
      "name": "totalSupply",
      "outputs": [
        {
          "name": "",
          "type": "uint256"
        }
      ],
      "payable": false,
      "stateMutability": "view",
      "type": "function"
    },
    {
      "constant": false,
      "inputs": [
        {
          "name": "amount",
          "type": "uint256"
        }
      ],
      "name": "burn",
      "outputs": [
        {
          "name": "",
          "type": "bool"
        }
      ],
      "payable": false,
      "stateMutability": "nonpayable",
      "type": "function"
    },
    {
      "constant": true,
      "inputs": [
        {
          "name": "addr",
          "type": "address"
        }
      ],
      "name": "balanceOf",
      "outputs": [
        {
          "name": "",
          "type": "uint256"
        }
      ],
      "payable": false,
      "stateMutability": "view",
      "type": "function"
    },
    {
      "constant": false,
      "inputs": [],
      "name": "getOwner",
      "outputs": [
        {
          "name": "",
          "type": "address"
        }
      ],
      "payable": false,
      "stateMutability": "nonpayable",
      "type": "function"
    },
    {
      "constant": false,
      "inputs": [
        {
          "name": "reciever",
          "type": "address"
        },
        {
          "name": "amount",
          "type": "uint256"
        }
      ],
      "name": "transfer",
      "outputs": [
        {
          "name": "",
          "type": "bool"
        }
      ],
      "payable": false,
      "stateMutability": "nonpayable",
      "type": "function"
    },
    {
      "constant": false,
      "inputs": [
        {
          "name": "reciever",
          "type": "address"
        },
        {
          "name": "amount",
          "type": "uint256"
        },
        {
          "name": "data",
          "type": "bytes"
        }
      ],
      "name": "transfer",
      "outputs": [
        {
          "name": "",
          "type": "bool"
        }
      ],
      "payable": false,
      "stateMutability": "nonpayable",
      "type": "function"
    },
    {
      "inputs": [
        {
          "name": "symbol",
          "type": "string"
        },
        {
          "name": "name",
          "type": "string"
        },
        {
          "name": "decimals",
          "type": "uint8"
        },
        {
          "name": "totalSupply",
          "type": "uint256"
        }
      ],
      "payable": false,
      "stateMutability": "nonpayable",
      "type": "constructor"
    },
    {
      "anonymous": false,
      "inputs": [
        {
          "indexed": false,
          "name": "totalSupply",
          "type": "uint256"
        }
      ],
      "name": "TotalSupply",
      "type": "event"
    },
    {
      "anonymous": false,
      "inputs": [
        {
          "indexed": false,
          "name": "addr",
          "type": "address"
        },
        {
          "indexed": false,
          "name": "balance",
          "type": "uint256"
        }
      ],
      "name": "BalanceOf",
      "type": "event"
    },
    {
      "anonymous": false,
      "inputs": [
        {
          "indexed": true,
          "name": "reciever",
          "type": "address"
        },
        {
          "indexed": false,
          "name": "amount",
          "type": "uint256"
        }
      ],
      "name": "Burn",
      "type": "event"
    },
    {
      "anonymous": false,
      "inputs": [
        {
          "indexed": true,
          "name": "sender",
          "type": "address"
        },
        {
          "indexed": true,
          "name": "reciever",
          "type": "address"
        },
        {
          "indexed": false,
          "name": "amount",
          "type": "uint256"
        },
        {
          "indexed": false,
          "name": "data",
          "type": "bytes"
        }
      ],
      "name": "Transfer",
      "type": "event"
    },
    {
      "anonymous": false,
      "inputs": [
        {
          "indexed": true,
          "name": "owner",
          "type": "address"
        }
      ],
      "name": "GetOwner",
      "type": "event"
    }
  ],
  "bytecode": "0x6060604052341561000f57600080fd5b604051610bed380380610bed83398101604052808051820191906020018051820191906020018051906020019091908051906020019091905050836000908051906020019061005f929190610149565b508260019080519060200190610076929190610149565b5081600260006101000a81548160ff021916908360ff16021790555033600460006101000a81548173ffffffffffffffffffffffffffffffffffffffff021916908373ffffffffffffffffffffffffffffffffffffffff1602179055508060056000600460009054906101000a900473ffffffffffffffffffffffffffffffffffffffff1673ffffffffffffffffffffffffffffffffffffffff1673ffffffffffffffffffffffffffffffffffffffff1681526020019081526020016000208190555080600381905550505050506101ee565b828054600181600116156101000203166002900490600052602060002090601f016020900481019282601f1061018a57805160ff19168380011785556101b8565b828001600101855582156101b8579182015b828111156101b757825182559160200191906001019061019c565b5b5090506101c591906101c9565b5090565b6101eb91905b808211156101e75760008160009055506001016101cf565b5090565b90565b6109f0806101fd6000396000f300606060405260043610610078576000357c0100000000000000000000000000000000000000000000000000000000900463ffffffff16806318160ddd1461007d57806342966c68146100a657806370a08231146100e1578063893d20e81461012e578063a9059cbb14610183578063be45fd62146101dd575b600080fd5b341561008857600080fd5b61009061027a565b6040518082815260200191505060405180910390f35b34156100b157600080fd5b6100c760048080359060200190919050506102bd565b604051808215151515815260200191505060405180910390f35b34156100ec57600080fd5b610118600480803573ffffffffffffffffffffffffffffffffffffffff16906020019091905050610422565b6040518082815260200191505060405180910390f35b341561013957600080fd5b610141610515565b604051808273ffffffffffffffffffffffffffffffffffffffff1673ffffffffffffffffffffffffffffffffffffffff16815260200191505060405180910390f35b341561018e57600080fd5b6101c3600480803573ffffffffffffffffffffffffffffffffffffffff169060200190919080359060200190919050506105a4565b604051808215151515815260200191505060405180910390f35b34156101e857600080fd5b610260600480803573ffffffffffffffffffffffffffffffffffffffff1690602001909190803590602001909190803590602001908201803590602001908080601f016020809104026020016040519081016040528093929190818152602001838380828437820191505050505050919050506105d9565b604051808215151515815260200191505060405180910390f35b60007f91cf34a58a9ed220d9b072639106d1d07251e1791426d2560ab2d6c4ca19a1836003546040518082815260200191505060405180910390a1600354905090565b600080821115156102cd57600080fd5b81600560003373ffffffffffffffffffffffffffffffffffffffff1673ffffffffffffffffffffffffffffffffffffffff168152602001908152602001600020541015151561031b57600080fd5b61036d82600560003373ffffffffffffffffffffffffffffffffffffffff1673ffffffffffffffffffffffffffffffffffffffff1681526020019081526020016000205461096690919063ffffffff16565b600560003373ffffffffffffffffffffffffffffffffffffffff1673ffffffffffffffffffffffffffffffffffffffff168152602001908152602001600020819055506103c58260035461096690919063ffffffff16565b6003819055503373ffffffffffffffffffffffffffffffffffffffff167fcc16f5dbb4873280815c1ee09dbd06736cffcc184412cf7a71a0fdb75d397ca5836040518082815260200191505060405180910390a260019050919050565b60007f53fa2f1ab3ce356105837b2d33e4d9445d41050bf57eca18817186e0242a08a982600560008573ffffffffffffffffffffffffffffffffffffffff1673ffffffffffffffffffffffffffffffffffffffff16815260200190815260200160002054604051808373ffffffffffffffffffffffffffffffffffffffff1673ffffffffffffffffffffffffffffffffffffffff1681526020018281526020019250505060405180910390a1600560008373ffffffffffffffffffffffffffffffffffffffff1673ffffffffffffffffffffffffffffffffffffffff168152602001908152602001600020549050919050565b6000600460009054906101000a900473ffffffffffffffffffffffffffffffffffffffff1673ffffffffffffffffffffffffffffffffffffffff167fe3dc01f26841462f7605d43d79c5b39ef562d9d9726f2a390f728966016ae64560405160405180910390a2600460009054906101000a900473ffffffffffffffffffffffffffffffffffffffff16905090565b60006105ae6109b0565b60006105bb8585846105d9565b905080156105cc57600192506105d1565b600092505b505092915050565b600080836105e633610422565b1115156105f257600080fd5b60008573ffffffffffffffffffffffffffffffffffffffff161415151561061857600080fd5b61066a84600560003373ffffffffffffffffffffffffffffffffffffffff1673ffffffffffffffffffffffffffffffffffffffff1681526020019081526020016000205461096690919063ffffffff16565b600560003373ffffffffffffffffffffffffffffffffffffffff1673ffffffffffffffffffffffffffffffffffffffff168152602001908152602001600020819055506106ff84600560008873ffffffffffffffffffffffffffffffffffffffff1673ffffffffffffffffffffffffffffffffffffffff1681526020019081526020016000205461097f90919063ffffffff16565b600560008773ffffffffffffffffffffffffffffffffffffffff1673ffffffffffffffffffffffffffffffffffffffff1681526020019081526020016000208190555061074b8561099d565b15610888578490508073ffffffffffffffffffffffffffffffffffffffff1663c0ee0b8a3386866000604051602001526040518463ffffffff167c0100000000000000000000000000000000000000000000000000000000028152600401808473ffffffffffffffffffffffffffffffffffffffff1673ffffffffffffffffffffffffffffffffffffffff16815260200183815260200180602001828103825283818151815260200191508051906020019080838360005b8381101561081e578082015181840152602081019050610803565b50505050905090810190601f16801561084b5780820380516001836020036101000a031916815260200191505b50945050505050602060405180830381600087803b151561086b57600080fd5b6102c65a03f1151561087c57600080fd5b50505060405180519050505b8473ffffffffffffffffffffffffffffffffffffffff163373ffffffffffffffffffffffffffffffffffffffff167fe19260aff97b920c7df27010903aeb9c8d2be5d310a2c67824cf3f15396e4c1686866040518083815260200180602001828103825283818151815260200191508051906020019080838360005b8381101561091f578082015181840152602081019050610904565b50505050905090810190601f16801561094c5780820380516001836020036101000a031916815260200191505b50935050505060405180910390a360019150509392505050565b600082821115151561097457fe5b818303905092915050565b600080828401905083811015151561099357fe5b8091505092915050565b600080823b905060008111915050919050565b6020604051908101604052806000815250905600a165627a7a72305820b8a4ae86703d2640e40d87d6b784a0d511f49b9a88404d4d2fb8635bd0abf2ea0029",
  "source": "pragma solidity ^0.4.17;\r\n\r\n\r\nimport \"../abstract-classes/erc223-basic.sol\";\r\nimport \"../abstract-classes/erc223-reciever.sol\";\r\n//TODO test to see if contract owner can change the amount of total supply\r\ncontract basicToken is abstractBasicToken\r\n{\r\n  function basicToken(string symbol, string name, uint8 decimals,uint256 totalSupply) public\r\n  {\r\n    _symbol = symbol;\r\n    _name = name;\r\n    _decimals = decimals;\r\n    _owner = msg.sender;\r\n    _balances[_owner] =totalSupply;\r\n    _totalSupply = totalSupply;\r\n  }\r\n\r\n  function balanceOf(address addr) public view returns (uint256)\r\n  {\r\n    BalanceOf( addr , _balances[addr] );\r\n    return _balances[addr] ;\r\n  }\r\n  function getOwner() public returns (address)\r\n  {\r\n      GetOwner(_owner);\r\n      return _owner;\r\n  }\r\n  function totalSupply() public view returns (uint256)\r\n  {\r\n    TotalSupply(_totalSupply);\r\n    return _totalSupply;\r\n  }\r\n\r\n\r\n  function transfer(address reciever, uint256 amount, bytes data) public returns (bool)\r\n  {\r\n\r\n    // Throw an error and fail if If balnce of sender is smaller than the amount of tokens sender has.\r\n    // Question : Should I make it larger than or equal ??\r\n    require (balanceOf(msg.sender) > amount) ;\r\n    require (reciever!=0x0);\r\n    //subtrack the amount of tokens from sender\r\n    _balances[msg.sender] = _balances[msg.sender].sub(amount);\r\n    _balances[reciever] = _balances[reciever].add(amount);\r\n\r\n    if (isContract(reciever))\r\n    {\r\n      abstractReciever receiverContract = abstractReciever(reciever);\r\n      receiverContract.tokenFallback(msg.sender, amount, data);\r\n\r\n    }\r\n    Transfer(msg.sender, reciever, amount, data);\r\n    return true;\r\n\r\n  }\r\n\r\n  function  transfer(address reciever, uint256 amount) public  returns (bool){\r\n        bytes memory empty;\r\n        bool gotTransfered =  transfer(reciever , amount ,empty);\r\n\r\n        if (gotTransfered)\r\n          return true;\r\n        else\r\n          return false;\r\n   }\r\n\r\n   function burn(uint256 amount) public  returns (bool){\r\n     require(amount>0);\r\n     require(_balances[msg.sender]>=amount);\r\n     _balances[msg.sender] = _balances[msg.sender].sub(amount);\r\n     _totalSupply = _totalSupply.sub(amount);\r\n     Burn(msg.sender,amount);\r\n     return true;\r\n   }\r\n\r\n\r\n  //private functions\r\n  function isContract(address addr) private view returns (bool) {\r\n    uint length;\r\n    assembly {\r\n          //retrieve the size of the code on target address, this needs assembly\r\n          length := extcodesize(addr)\r\n    }\r\n    return (length>0);\r\n  }\r\n\r\n}\r\n",
  "sourcePath": "C:\\ethereum\\crowdsale-factory\\contracts\\tokens\\basic-token.sol",
  "compiler": {
    "name": "solc",
    "version": "0.4.18+commit.9cf6e910.Emscripten.clang"
  },
  "schemaVersion": "1.0.1",
  "updatedAt": "2017-11-14T21:07:19.492Z"
}