{
  "contractName": "mintableToken",
  "abi": [
    {
      "constant": true,
      "inputs": [],
      "name": "totalSupply",
      "outputs": [
        {
          "name": "",
          "type": "uint256"
        }
      ],
      "payable": false,
      "stateMutability": "view",
      "type": "function"
    },
    {
      "constant": false,
      "inputs": [
        {
          "name": "reciever",
          "type": "address"
        },
        {
          "name": "amount",
          "type": "uint256"
        }
      ],
      "name": "mint",
      "outputs": [
        {
          "name": "",
          "type": "bool"
        }
      ],
      "payable": false,
      "stateMutability": "nonpayable",
      "type": "function"
    },
    {
      "constant": false,
      "inputs": [
        {
          "name": "amount",
          "type": "uint256"
        }
      ],
      "name": "burn",
      "outputs": [
        {
          "name": "",
          "type": "bool"
        }
      ],
      "payable": false,
      "stateMutability": "nonpayable",
      "type": "function"
    },
    {
      "constant": true,
      "inputs": [
        {
          "name": "addr",
          "type": "address"
        }
      ],
      "name": "balanceOf",
      "outputs": [
        {
          "name": "",
          "type": "uint256"
        }
      ],
      "payable": false,
      "stateMutability": "view",
      "type": "function"
    },
    {
      "constant": false,
      "inputs": [],
      "name": "getOwner",
      "outputs": [
        {
          "name": "",
          "type": "address"
        }
      ],
      "payable": false,
      "stateMutability": "nonpayable",
      "type": "function"
    },
    {
      "constant": false,
      "inputs": [
        {
          "name": "reciever",
          "type": "address"
        },
        {
          "name": "amount",
          "type": "uint256"
        }
      ],
      "name": "transfer",
      "outputs": [
        {
          "name": "",
          "type": "bool"
        }
      ],
      "payable": false,
      "stateMutability": "nonpayable",
      "type": "function"
    },
    {
      "constant": false,
      "inputs": [
        {
          "name": "reciever",
          "type": "address"
        },
        {
          "name": "amount",
          "type": "uint256"
        },
        {
          "name": "data",
          "type": "bytes"
        }
      ],
      "name": "transfer",
      "outputs": [
        {
          "name": "",
          "type": "bool"
        }
      ],
      "payable": false,
      "stateMutability": "nonpayable",
      "type": "function"
    },
    {
      "inputs": [
        {
          "name": "symbol",
          "type": "string"
        },
        {
          "name": "name",
          "type": "string"
        },
        {
          "name": "decimals",
          "type": "uint8"
        }
      ],
      "payable": false,
      "stateMutability": "nonpayable",
      "type": "constructor"
    },
    {
      "anonymous": false,
      "inputs": [
        {
          "indexed": true,
          "name": "reciever",
          "type": "address"
        },
        {
          "indexed": false,
          "name": "amount",
          "type": "uint256"
        }
      ],
      "name": "Mint",
      "type": "event"
    },
    {
      "anonymous": false,
      "inputs": [
        {
          "indexed": false,
          "name": "totalSupply",
          "type": "uint256"
        }
      ],
      "name": "TotalSupply",
      "type": "event"
    },
    {
      "anonymous": false,
      "inputs": [
        {
          "indexed": false,
          "name": "addr",
          "type": "address"
        },
        {
          "indexed": false,
          "name": "balance",
          "type": "uint256"
        }
      ],
      "name": "BalanceOf",
      "type": "event"
    },
    {
      "anonymous": false,
      "inputs": [
        {
          "indexed": true,
          "name": "reciever",
          "type": "address"
        },
        {
          "indexed": false,
          "name": "amount",
          "type": "uint256"
        }
      ],
      "name": "Burn",
      "type": "event"
    },
    {
      "anonymous": false,
      "inputs": [
        {
          "indexed": true,
          "name": "sender",
          "type": "address"
        },
        {
          "indexed": true,
          "name": "reciever",
          "type": "address"
        },
        {
          "indexed": false,
          "name": "amount",
          "type": "uint256"
        },
        {
          "indexed": false,
          "name": "data",
          "type": "bytes"
        }
      ],
      "name": "Transfer",
      "type": "event"
    },
    {
      "anonymous": false,
      "inputs": [
        {
          "indexed": true,
          "name": "owner",
          "type": "address"
        }
      ],
      "name": "GetOwner",
      "type": "event"
    }
  ],
  "bytecode": "0x6060604052341561000f57600080fd5b604051610e5f380380610e5f8339810160405280805182019190602001805182019190602001805190602001909190505082600090805190602001906100569291906100da565b50816001908051906020019061006d9291906100da565b5080600260006101000a81548160ff021916908360ff16021790555033600460006101000a81548173ffffffffffffffffffffffffffffffffffffffff021916908373ffffffffffffffffffffffffffffffffffffffff160217905550600060038190555050505061017f565b828054600181600116156101000203166002900490600052602060002090601f016020900481019282601f1061011b57805160ff1916838001178555610149565b82800160010185558215610149579182015b8281111561014857825182559160200191906001019061012d565b5b509050610156919061015a565b5090565b61017c91905b80821115610178576000816000905550600101610160565b5090565b90565b610cd18061018e6000396000f300606060405260043610610083576000357c0100000000000000000000000000000000000000000000000000000000900463ffffffff16806318160ddd1461008857806340c10f19146100b157806342966c681461010b57806370a0823114610146578063893d20e814610193578063a9059cbb146101e8578063be45fd6214610242575b600080fd5b341561009357600080fd5b61009b6102df565b6040518082815260200191505060405180910390f35b34156100bc57600080fd5b6100f1600480803573ffffffffffffffffffffffffffffffffffffffff16906020019091908035906020019091905050610322565b604051808215151515815260200191505060405180910390f35b341561011657600080fd5b61012c600480803590602001909190505061059e565b604051808215151515815260200191505060405180910390f35b341561015157600080fd5b61017d600480803573ffffffffffffffffffffffffffffffffffffffff16906020019091905050610703565b6040518082815260200191505060405180910390f35b341561019e57600080fd5b6101a66107f6565b604051808273ffffffffffffffffffffffffffffffffffffffff1673ffffffffffffffffffffffffffffffffffffffff16815260200191505060405180910390f35b34156101f357600080fd5b610228600480803573ffffffffffffffffffffffffffffffffffffffff16906020019091908035906020019091905050610885565b604051808215151515815260200191505060405180910390f35b341561024d57600080fd5b6102c5600480803573ffffffffffffffffffffffffffffffffffffffff1690602001909190803590602001909190803590602001908201803590602001908080601f016020809104026020016040519081016040528093929190818152602001838380828437820191505050505050919050506108ba565b604051808215151515815260200191505060405180910390f35b60007f91cf34a58a9ed220d9b072639106d1d07251e1791426d2560ab2d6c4ca19a1836003546040518082815260200191505060405180910390a1600354905090565b600061032c610c91565b3373ffffffffffffffffffffffffffffffffffffffff16600460009054906101000a900473ffffffffffffffffffffffffffffffffffffffff1673ffffffffffffffffffffffffffffffffffffffff1614151561038857600080fd5b60008473ffffffffffffffffffffffffffffffffffffffff16141515156103ae57600080fd5b6103b784610c47565b1515156103c357600080fd5b6103d883600354610c5a90919063ffffffff16565b60038190555061043083600560008773ffffffffffffffffffffffffffffffffffffffff1673ffffffffffffffffffffffffffffffffffffffff16815260200190815260200160002054610c5a90919063ffffffff16565b600560008673ffffffffffffffffffffffffffffffffffffffff1673ffffffffffffffffffffffffffffffffffffffff168152602001908152602001600020819055508373ffffffffffffffffffffffffffffffffffffffff167f0f6798a560793a54c3bcfe86a93cde1e73087d944c0ea20544137d4121396885846040518082815260200191505060405180910390a28373ffffffffffffffffffffffffffffffffffffffff163373ffffffffffffffffffffffffffffffffffffffff167fe19260aff97b920c7df27010903aeb9c8d2be5d310a2c67824cf3f15396e4c1685846040518083815260200180602001828103825283818151815260200191508051906020019080838360005b8381101561055857808201518184015260208101905061053d565b50505050905090810190601f1680156105855780820380516001836020036101000a031916815260200191505b50935050505060405180910390a3600191505092915050565b600080821115156105ae57600080fd5b81600560003373ffffffffffffffffffffffffffffffffffffffff1673ffffffffffffffffffffffffffffffffffffffff16815260200190815260200160002054101515156105fc57600080fd5b61064e82600560003373ffffffffffffffffffffffffffffffffffffffff1673ffffffffffffffffffffffffffffffffffffffff16815260200190815260200160002054610c7890919063ffffffff16565b600560003373ffffffffffffffffffffffffffffffffffffffff1673ffffffffffffffffffffffffffffffffffffffff168152602001908152602001600020819055506106a682600354610c7890919063ffffffff16565b6003819055503373ffffffffffffffffffffffffffffffffffffffff167fcc16f5dbb4873280815c1ee09dbd06736cffcc184412cf7a71a0fdb75d397ca5836040518082815260200191505060405180910390a260019050919050565b60007f53fa2f1ab3ce356105837b2d33e4d9445d41050bf57eca18817186e0242a08a982600560008573ffffffffffffffffffffffffffffffffffffffff1673ffffffffffffffffffffffffffffffffffffffff16815260200190815260200160002054604051808373ffffffffffffffffffffffffffffffffffffffff1673ffffffffffffffffffffffffffffffffffffffff1681526020018281526020019250505060405180910390a1600560008373ffffffffffffffffffffffffffffffffffffffff1673ffffffffffffffffffffffffffffffffffffffff168152602001908152602001600020549050919050565b6000600460009054906101000a900473ffffffffffffffffffffffffffffffffffffffff1673ffffffffffffffffffffffffffffffffffffffff167fe3dc01f26841462f7605d43d79c5b39ef562d9d9726f2a390f728966016ae64560405160405180910390a2600460009054906101000a900473ffffffffffffffffffffffffffffffffffffffff16905090565b600061088f610c91565b600061089c8585846108ba565b905080156108ad57600192506108b2565b600092505b505092915050565b600080836108c733610703565b1115156108d357600080fd5b60008573ffffffffffffffffffffffffffffffffffffffff16141515156108f957600080fd5b61094b84600560003373ffffffffffffffffffffffffffffffffffffffff1673ffffffffffffffffffffffffffffffffffffffff16815260200190815260200160002054610c7890919063ffffffff16565b600560003373ffffffffffffffffffffffffffffffffffffffff1673ffffffffffffffffffffffffffffffffffffffff168152602001908152602001600020819055506109e084600560008873ffffffffffffffffffffffffffffffffffffffff1673ffffffffffffffffffffffffffffffffffffffff16815260200190815260200160002054610c5a90919063ffffffff16565b600560008773ffffffffffffffffffffffffffffffffffffffff1673ffffffffffffffffffffffffffffffffffffffff16815260200190815260200160002081905550610a2c85610c47565b15610b69578490508073ffffffffffffffffffffffffffffffffffffffff1663c0ee0b8a3386866000604051602001526040518463ffffffff167c0100000000000000000000000000000000000000000000000000000000028152600401808473ffffffffffffffffffffffffffffffffffffffff1673ffffffffffffffffffffffffffffffffffffffff16815260200183815260200180602001828103825283818151815260200191508051906020019080838360005b83811015610aff578082015181840152602081019050610ae4565b50505050905090810190601f168015610b2c5780820380516001836020036101000a031916815260200191505b50945050505050602060405180830381600087803b1515610b4c57600080fd5b6102c65a03f11515610b5d57600080fd5b50505060405180519050505b8473ffffffffffffffffffffffffffffffffffffffff163373ffffffffffffffffffffffffffffffffffffffff167fe19260aff97b920c7df27010903aeb9c8d2be5d310a2c67824cf3f15396e4c1686866040518083815260200180602001828103825283818151815260200191508051906020019080838360005b83811015610c00578082015181840152602081019050610be5565b50505050905090810190601f168015610c2d5780820380516001836020036101000a031916815260200191505b50935050505060405180910390a360019150509392505050565b600080823b905060008111915050919050565b6000808284019050838110151515610c6e57fe5b8091505092915050565b6000828211151515610c8657fe5b818303905092915050565b6020604051908101604052806000815250905600a165627a7a723058209ff4c0679b913ca1ce719a850edd6cdc0a61dd642c725a265bee07a250d33bcc0029",
  "source": "pragma solidity ^0.4.17;\r\n\r\n\r\nimport \"../abstract-classes/erc223-mintable-token.sol\";\r\nimport \"../abstract-classes/erc223-reciever.sol\";\r\nimport \"./basic-token.sol\";\r\n\r\ncontract mintableToken is abstractMintableToken\r\n{\r\n  function mintableToken(string symbol, string name, uint8 decimals) public\r\n  {\r\n    _symbol = symbol;\r\n    _name = name;\r\n    _decimals = decimals;\r\n    _owner = msg.sender;\r\n    _totalSupply = 0;\r\n  }\r\n  function getOwner() public returns (address)\r\n  {\r\n      GetOwner(_owner);\r\n      return _owner;\r\n  }\r\n\r\n  function balanceOf(address addr) public view returns (uint256)\r\n  {\r\n    BalanceOf( addr , _balances[addr] );\r\n    return _balances[addr];\r\n  }\r\n  function totalSupply() public view returns (uint256)\r\n  {\r\n    TotalSupply(_totalSupply);\r\n    return _totalSupply;\r\n  }\r\n\r\n  function mint(address reciever, uint256 amount) public returns (bool)\r\n  {\r\n    // only owner can mint\r\n    require(_owner==msg.sender);\r\n    //Cannot send the newly minted tokens to get burnt\r\n    require (reciever!=0x0);\r\n    //Should not send the newly minted tokens to contracts\r\n    //Question : Should it?\r\n    require(!isContract(reciever));\r\n    //Question : Should it be empty ?\r\n    bytes memory empty;\r\n    _totalSupply = _totalSupply.add(amount);\r\n    _balances[reciever] = _balances[reciever].add(amount);\r\n    Mint(reciever, amount);\r\n    Transfer(msg.sender, reciever, amount, empty);\r\n    return true;\r\n  }\r\n\r\n  function transfer(address reciever, uint256 amount, bytes data) public returns (bool)\r\n  {\r\n\r\n    // Throw an error and fail if If balnce of sender is smaller than the amount of tokens sender has.\r\n    // Question : Should I make it larger than or equal ??\r\n    require (balanceOf(msg.sender) > amount) ;\r\n    require (reciever!=0x0);\r\n    //subtrack the amount of tokens from sender\r\n    _balances[msg.sender] = _balances[msg.sender].sub(amount);\r\n    _balances[reciever] = _balances[reciever].add(amount);\r\n\r\n    if (isContract(reciever))\r\n    {\r\n      abstractReciever receiverContract = abstractReciever(reciever);\r\n      receiverContract.tokenFallback(msg.sender, amount, data);\r\n\r\n    }\r\n    Transfer(msg.sender, reciever, amount, data);\r\n    return true;\r\n\r\n  }\r\n\r\n  function  transfer(address reciever, uint256 amount) public  returns (bool){\r\n        bytes memory empty;\r\n        bool gotTransfered =  transfer(reciever , amount ,empty);\r\n\r\n        if (gotTransfered)\r\n          return true;\r\n        else\r\n          return false;\r\n   }\r\n   function burn(uint256 amount) public  returns (bool){\r\n     require(amount>0);\r\n     require(_balances[msg.sender]>=amount);\r\n     _balances[msg.sender] = _balances[msg.sender].sub(amount);\r\n     _totalSupply = _totalSupply.sub(amount);\r\n     Burn(msg.sender,amount);\r\n     return true;\r\n   }\r\n\r\n  //private functions\r\n  function isContract(address addr) private view returns (bool) {\r\n    uint length;\r\n    assembly {\r\n          //retrieve the size of the code on target address, this needs assembly\r\n          length := extcodesize(addr)\r\n    }\r\n    return (length>0);\r\n  }\r\n}\r\n",
  "sourcePath": "C:\\ethereum\\crowdsale-factory\\contracts\\tokens\\mintable-token.sol",
  "compiler": {
    "name": "solc",
    "version": "0.4.18+commit.9cf6e910.Emscripten.clang"
  },
  "schemaVersion": "1.0.1",
  "updatedAt": "2017-11-14T21:07:19.494Z"
}